{
  "contractName": "NFToken",
  "abi": [
    {
      "inputs": [
        {
          "internalType": "string",
          "name": "name",
          "type": "string"
        },
        {
          "internalType": "string",
          "name": "symbol",
          "type": "string"
        }
      ],
      "stateMutability": "nonpayable",
      "type": "constructor"
    },
    {
      "anonymous": false,
      "inputs": [
        {
          "indexed": true,
          "internalType": "address",
          "name": "owner",
          "type": "address"
        },
        {
          "indexed": true,
          "internalType": "address",
          "name": "approved",
          "type": "address"
        },
        {
          "indexed": true,
          "internalType": "uint256",
          "name": "tokenId",
          "type": "uint256"
        }
      ],
      "name": "Approval",
      "type": "event"
    },
    {
      "anonymous": false,
      "inputs": [
        {
          "indexed": true,
          "internalType": "address",
          "name": "owner",
          "type": "address"
        },
        {
          "indexed": true,
          "internalType": "address",
          "name": "operator",
          "type": "address"
        },
        {
          "indexed": false,
          "internalType": "bool",
          "name": "approved",
          "type": "bool"
        }
      ],
      "name": "ApprovalForAll",
      "type": "event"
    },
    {
      "anonymous": false,
      "inputs": [
        {
          "indexed": true,
          "internalType": "address",
          "name": "from",
          "type": "address"
        },
        {
          "indexed": true,
          "internalType": "address",
          "name": "to",
          "type": "address"
        },
        {
          "indexed": true,
          "internalType": "uint256",
          "name": "tokenId",
          "type": "uint256"
        }
      ],
      "name": "Transfer",
      "type": "event"
    },
    {
      "inputs": [
        {
          "internalType": "address",
          "name": "to",
          "type": "address"
        },
        {
          "internalType": "uint256",
          "name": "tokenId",
          "type": "uint256"
        }
      ],
      "name": "approve",
      "outputs": [],
      "stateMutability": "nonpayable",
      "type": "function"
    },
    {
      "inputs": [
        {
          "internalType": "address",
          "name": "owner",
          "type": "address"
        }
      ],
      "name": "balanceOf",
      "outputs": [
        {
          "internalType": "uint256",
          "name": "",
          "type": "uint256"
        }
      ],
      "stateMutability": "view",
      "type": "function",
      "constant": true
    },
    {
      "inputs": [
        {
          "internalType": "uint256",
          "name": "tokenId",
          "type": "uint256"
        }
      ],
      "name": "getApproved",
      "outputs": [
        {
          "internalType": "address",
          "name": "",
          "type": "address"
        }
      ],
      "stateMutability": "view",
      "type": "function",
      "constant": true
    },
    {
      "inputs": [
        {
          "internalType": "address",
          "name": "owner",
          "type": "address"
        },
        {
          "internalType": "address",
          "name": "operator",
          "type": "address"
        }
      ],
      "name": "isApprovedForAll",
      "outputs": [
        {
          "internalType": "bool",
          "name": "",
          "type": "bool"
        }
      ],
      "stateMutability": "view",
      "type": "function",
      "constant": true
    },
    {
      "inputs": [],
      "name": "name",
      "outputs": [
        {
          "internalType": "string",
          "name": "",
          "type": "string"
        }
      ],
      "stateMutability": "view",
      "type": "function",
      "constant": true
    },
    {
      "inputs": [
        {
          "internalType": "uint256",
          "name": "tokenId",
          "type": "uint256"
        }
      ],
      "name": "ownerOf",
      "outputs": [
        {
          "internalType": "address",
          "name": "",
          "type": "address"
        }
      ],
      "stateMutability": "view",
      "type": "function",
      "constant": true
    },
    {
      "inputs": [
        {
          "internalType": "address",
          "name": "from",
          "type": "address"
        },
        {
          "internalType": "address",
          "name": "to",
          "type": "address"
        },
        {
          "internalType": "uint256",
          "name": "tokenId",
          "type": "uint256"
        }
      ],
      "name": "safeTransferFrom",
      "outputs": [],
      "stateMutability": "nonpayable",
      "type": "function"
    },
    {
      "inputs": [
        {
          "internalType": "address",
          "name": "from",
          "type": "address"
        },
        {
          "internalType": "address",
          "name": "to",
          "type": "address"
        },
        {
          "internalType": "uint256",
          "name": "tokenId",
          "type": "uint256"
        },
        {
          "internalType": "bytes",
          "name": "_data",
          "type": "bytes"
        }
      ],
      "name": "safeTransferFrom",
      "outputs": [],
      "stateMutability": "nonpayable",
      "type": "function"
    },
    {
      "inputs": [
        {
          "internalType": "address",
          "name": "operator",
          "type": "address"
        },
        {
          "internalType": "bool",
          "name": "approved",
          "type": "bool"
        }
      ],
      "name": "setApprovalForAll",
      "outputs": [],
      "stateMutability": "nonpayable",
      "type": "function"
    },
    {
      "inputs": [
        {
          "internalType": "bytes4",
          "name": "interfaceId",
          "type": "bytes4"
        }
      ],
      "name": "supportsInterface",
      "outputs": [
        {
          "internalType": "bool",
          "name": "",
          "type": "bool"
        }
      ],
      "stateMutability": "view",
      "type": "function",
      "constant": true
    },
    {
      "inputs": [],
      "name": "symbol",
      "outputs": [
        {
          "internalType": "string",
          "name": "",
          "type": "string"
        }
      ],
      "stateMutability": "view",
      "type": "function",
      "constant": true
    },
    {
      "inputs": [
        {
          "internalType": "uint256",
          "name": "tokenId",
          "type": "uint256"
        }
      ],
      "name": "tokenURI",
      "outputs": [
        {
          "internalType": "string",
          "name": "",
          "type": "string"
        }
      ],
      "stateMutability": "view",
      "type": "function",
      "constant": true
    },
    {
      "inputs": [
        {
          "internalType": "address",
          "name": "from",
          "type": "address"
        },
        {
          "internalType": "address",
          "name": "to",
          "type": "address"
        },
        {
          "internalType": "uint256",
          "name": "tokenId",
          "type": "uint256"
        }
      ],
      "name": "transferFrom",
      "outputs": [],
      "stateMutability": "nonpayable",
      "type": "function"
    },
    {
      "inputs": [
        {
          "internalType": "address",
          "name": "receiver",
          "type": "address"
        },
        {
          "internalType": "string",
          "name": "tokenURI",
          "type": "string"
        }
      ],
      "name": "newToken",
      "outputs": [
        {
          "internalType": "uint256",
          "name": "",
          "type": "uint256"
        }
      ],
      "stateMutability": "nonpayable",
      "type": "function"
    }
  ],
  "bytecode": "0x60806040523480156200001157600080fd5b5060405162002ef638038062002ef6833981810160405281019062000037919062000197565b818181600090805190602001906200005192919062000075565b5080600190805190602001906200006a92919062000075565b50505050506200037a565b82805462000083906200029f565b90600052602060002090601f016020900481019282620000a75760008555620000f3565b82601f10620000c257805160ff1916838001178555620000f3565b82800160010185558215620000f3579182015b82811115620000f2578251825591602001919060010190620000d5565b5b50905062000102919062000106565b5090565b5b808211156200012157600081600090555060010162000107565b5090565b60006200013c620001368462000233565b6200020a565b9050828152602081018484840111156200015557600080fd5b6200016284828562000269565b509392505050565b600082601f8301126200017c57600080fd5b81516200018e84826020860162000125565b91505092915050565b60008060408385031215620001ab57600080fd5b600083015167ffffffffffffffff811115620001c657600080fd5b620001d4858286016200016a565b925050602083015167ffffffffffffffff811115620001f257600080fd5b62000200858286016200016a565b9150509250929050565b60006200021662000229565b9050620002248282620002d5565b919050565b6000604051905090565b600067ffffffffffffffff8211156200025157620002506200033a565b5b6200025c8262000369565b9050602081019050919050565b60005b83811015620002895780820151818401526020810190506200026c565b8381111562000299576000848401525b50505050565b60006002820490506001821680620002b857607f821691505b60208210811415620002cf57620002ce6200030b565b5b50919050565b620002e08262000369565b810181811067ffffffffffffffff821117156200030257620003016200033a565b5b80604052505050565b7f4e487b7100000000000000000000000000000000000000000000000000000000600052602260045260246000fd5b7f4e487b7100000000000000000000000000000000000000000000000000000000600052604160045260246000fd5b6000601f19601f8301169050919050565b612b6c806200038a6000396000f3fe608060405234801561001057600080fd5b50600436106100ea5760003560e01c80636352211e1161008c578063a22cb46511610066578063a22cb4651461026f578063b88d4fde1461028b578063c87b56dd146102a7578063e985e9c5146102d7576100ea565b80636352211e146101f157806370a082311461022157806395d89b4114610251576100ea565b8063095ea7b3116100c8578063095ea7b31461016d57806323b872dd1461018957806342842e0e146101a5578063526f3322146101c1576100ea565b806301ffc9a7146100ef57806306fdde031461011f578063081812fc1461013d575b600080fd5b61010960048036038101906101049190611c19565b610307565b604051610116919061201f565b60405180910390f35b6101276103e9565b604051610134919061203a565b60405180910390f35b61015760048036038101906101529190611c6b565b61047b565b6040516101649190611fb8565b60405180910390f35b61018760048036038101906101829190611bdd565b610500565b005b6101a3600480360381019061019e9190611a83565b610618565b005b6101bf60048036038101906101ba9190611a83565b610678565b005b6101db60048036038101906101d69190611b89565b610698565b6040516101e8919061225c565b60405180910390f35b61020b60048036038101906102069190611c6b565b6106d0565b6040516102189190611fb8565b60405180910390f35b61023b60048036038101906102369190611a1e565b610782565b604051610248919061225c565b60405180910390f35b61025961083a565b604051610266919061203a565b60405180910390f35b61028960048036038101906102849190611b4d565b6108cc565b005b6102a560048036038101906102a09190611ad2565b610a4d565b005b6102c160048036038101906102bc9190611c6b565b610aaf565b6040516102ce919061203a565b60405180910390f35b6102f160048036038101906102ec9190611a47565b610c01565b6040516102fe919061201f565b60405180910390f35b60007f80ac58cd000000000000000000000000000000000000000000000000000000007bffffffffffffffffffffffffffffffffffffffffffffffffffffffff1916827bffffffffffffffffffffffffffffffffffffffffffffffffffffffff191614806103d257507f5b5e139f000000000000000000000000000000000000000000000000000000007bffffffffffffffffffffffffffffffffffffffffffffffffffffffff1916827bffffffffffffffffffffffffffffffffffffffffffffffffffffffff1916145b806103e257506103e182610c95565b5b9050919050565b6060600080546103f8906124b2565b80601f0160208091040260200160405190810160405280929190818152602001828054610424906124b2565b80156104715780601f1061044657610100808354040283529160200191610471565b820191906000526020600020905b81548152906001019060200180831161045457829003601f168201915b5050505050905090565b600061048682610cff565b6104c5576040517f08c379a00000000000000000000000000000000000000000000000000000000081526004016104bc906121bc565b60405180910390fd5b6004600083815260200190815260200160002060009054906101000a900473ffffffffffffffffffffffffffffffffffffffff169050919050565b600061050b826106d0565b90508073ffffffffffffffffffffffffffffffffffffffff168373ffffffffffffffffffffffffffffffffffffffff16141561057c576040517f08c379a00000000000000000000000000000000000000000000000000000000081526004016105739061221c565b60405180910390fd5b8073ffffffffffffffffffffffffffffffffffffffff1661059b610d6b565b73ffffffffffffffffffffffffffffffffffffffff1614806105ca57506105c9816105c4610d6b565b610c01565b5b610609576040517f08c379a0000000000000000000000000000000000000000000000000000000008152600401610600906120fc565b60405180910390fd5b6106138383610d73565b505050565b610629610623610d6b565b82610e2c565b610668576040517f08c379a000000000000000000000000000000000000000000000000000000000815260040161065f9061223c565b60405180910390fd5b610673838383610f0a565b505050565b61069383838360405180602001604052806000815250610a4d565b505050565b60006106a46007611166565b60006106b0600761117c565b90506106bc848261118a565b6106c68184611358565b8091505092915050565b6000806002600084815260200190815260200160002060009054906101000a900473ffffffffffffffffffffffffffffffffffffffff169050600073ffffffffffffffffffffffffffffffffffffffff168173ffffffffffffffffffffffffffffffffffffffff161415610779576040517f08c379a00000000000000000000000000000000000000000000000000000000081526004016107709061213c565b60405180910390fd5b80915050919050565b60008073ffffffffffffffffffffffffffffffffffffffff168273ffffffffffffffffffffffffffffffffffffffff1614156107f3576040517f08c379a00000000000000000000000000000000000000000000000000000000081526004016107ea9061211c565b60405180910390fd5b600360008373ffffffffffffffffffffffffffffffffffffffff1673ffffffffffffffffffffffffffffffffffffffff168152602001908152602001600020549050919050565b606060018054610849906124b2565b80601f0160208091040260200160405190810160405280929190818152602001828054610875906124b2565b80156108c25780601f10610897576101008083540402835291602001916108c2565b820191906000526020600020905b8154815290600101906020018083116108a557829003601f168201915b5050505050905090565b6108d4610d6b565b73ffffffffffffffffffffffffffffffffffffffff168273ffffffffffffffffffffffffffffffffffffffff161415610942576040517f08c379a0000000000000000000000000000000000000000000000000000000008152600401610939906120bc565b60405180910390fd5b806005600061094f610d6b565b73ffffffffffffffffffffffffffffffffffffffff1673ffffffffffffffffffffffffffffffffffffffff16815260200190815260200160002060008473ffffffffffffffffffffffffffffffffffffffff1673ffffffffffffffffffffffffffffffffffffffff16815260200190815260200160002060006101000a81548160ff0219169083151502179055508173ffffffffffffffffffffffffffffffffffffffff166109fc610d6b565b73ffffffffffffffffffffffffffffffffffffffff167f17307eab39ab6107e8899845ad3d59bd9653f200f220920489ca2b5937696c3183604051610a41919061201f565b60405180910390a35050565b610a5e610a58610d6b565b83610e2c565b610a9d576040517f08c379a0000000000000000000000000000000000000000000000000000000008152600401610a949061223c565b60405180910390fd5b610aa9848484846113cc565b50505050565b6060610aba82610cff565b610af9576040517f08c379a0000000000000000000000000000000000000000000000000000000008152600401610af09061219c565b60405180910390fd5b6000600660008481526020019081526020016000208054610b19906124b2565b80601f0160208091040260200160405190810160405280929190818152602001828054610b45906124b2565b8015610b925780601f10610b6757610100808354040283529160200191610b92565b820191906000526020600020905b815481529060010190602001808311610b7557829003601f168201915b505050505090506000610ba3611428565b9050600081511415610bb9578192505050610bfc565b600082511115610bee578082604051602001610bd6929190611f94565b60405160208183030381529060405292505050610bfc565b610bf78461143f565b925050505b919050565b6000600560008473ffffffffffffffffffffffffffffffffffffffff1673ffffffffffffffffffffffffffffffffffffffff16815260200190815260200160002060008373ffffffffffffffffffffffffffffffffffffffff1673ffffffffffffffffffffffffffffffffffffffff16815260200190815260200160002060009054906101000a900460ff16905092915050565b60007f01ffc9a7000000000000000000000000000000000000000000000000000000007bffffffffffffffffffffffffffffffffffffffffffffffffffffffff1916827bffffffffffffffffffffffffffffffffffffffffffffffffffffffff1916149050919050565b60008073ffffffffffffffffffffffffffffffffffffffff166002600084815260200190815260200160002060009054906101000a900473ffffffffffffffffffffffffffffffffffffffff1673ffffffffffffffffffffffffffffffffffffffff1614159050919050565b600033905090565b816004600083815260200190815260200160002060006101000a81548173ffffffffffffffffffffffffffffffffffffffff021916908373ffffffffffffffffffffffffffffffffffffffff160217905550808273ffffffffffffffffffffffffffffffffffffffff16610de6836106d0565b73ffffffffffffffffffffffffffffffffffffffff167f8c5be1e5ebec7d5bd14f71427d1e84f3dd0314c0f7b2291e5b200ac8c7c3b92560405160405180910390a45050565b6000610e3782610cff565b610e76576040517f08c379a0000000000000000000000000000000000000000000000000000000008152600401610e6d906120dc565b60405180910390fd5b6000610e81836106d0565b90508073ffffffffffffffffffffffffffffffffffffffff168473ffffffffffffffffffffffffffffffffffffffff161480610ef057508373ffffffffffffffffffffffffffffffffffffffff16610ed88461047b565b73ffffffffffffffffffffffffffffffffffffffff16145b80610f015750610f008185610c01565b5b91505092915050565b8273ffffffffffffffffffffffffffffffffffffffff16610f2a826106d0565b73ffffffffffffffffffffffffffffffffffffffff1614610f80576040517f08c379a0000000000000000000000000000000000000000000000000000000008152600401610f77906121dc565b60405180910390fd5b600073ffffffffffffffffffffffffffffffffffffffff168273ffffffffffffffffffffffffffffffffffffffff161415610ff0576040517f08c379a0000000000000000000000000000000000000000000000000000000008152600401610fe79061209c565b60405180910390fd5b610ffb8383836114e6565b611006600082610d73565b6001600360008573ffffffffffffffffffffffffffffffffffffffff1673ffffffffffffffffffffffffffffffffffffffff168152602001908152602001600020600082825461105691906123c8565b925050819055506001600360008473ffffffffffffffffffffffffffffffffffffffff1673ffffffffffffffffffffffffffffffffffffffff16815260200190815260200160002060008282546110ad9190612341565b92505081905550816002600083815260200190815260200160002060006101000a81548173ffffffffffffffffffffffffffffffffffffffff021916908373ffffffffffffffffffffffffffffffffffffffff160217905550808273ffffffffffffffffffffffffffffffffffffffff168473ffffffffffffffffffffffffffffffffffffffff167fddf252ad1be2c89b69c2b068fc378daa952ba7f163c4a11628f55a4df523b3ef60405160405180910390a4505050565b6001816000016000828254019250508190555050565b600081600001549050919050565b600073ffffffffffffffffffffffffffffffffffffffff168273ffffffffffffffffffffffffffffffffffffffff1614156111fa576040517f08c379a00000000000000000000000000000000000000000000000000000000081526004016111f19061217c565b60405180910390fd5b61120381610cff565b15611243576040517f08c379a000000000000000000000000000000000000000000000000000000000815260040161123a9061207c565b60405180910390fd5b61124f600083836114e6565b6001600360008473ffffffffffffffffffffffffffffffffffffffff1673ffffffffffffffffffffffffffffffffffffffff168152602001908152602001600020600082825461129f9190612341565b92505081905550816002600083815260200190815260200160002060006101000a81548173ffffffffffffffffffffffffffffffffffffffff021916908373ffffffffffffffffffffffffffffffffffffffff160217905550808273ffffffffffffffffffffffffffffffffffffffff16600073ffffffffffffffffffffffffffffffffffffffff167fddf252ad1be2c89b69c2b068fc378daa952ba7f163c4a11628f55a4df523b3ef60405160405180910390a45050565b61136182610cff565b6113a0576040517f08c379a00000000000000000000000000000000000000000000000000000000081526004016113979061215c565b60405180910390fd5b806006600084815260200190815260200160002090805190602001906113c7929190611842565b505050565b6113d7848484610f0a565b6113e3848484846114eb565b611422576040517f08c379a00000000000000000000000000000000000000000000000000000000081526004016114199061205c565b60405180910390fd5b50505050565b606060405180602001604052806000815250905090565b606061144a82610cff565b611489576040517f08c379a0000000000000000000000000000000000000000000000000000000008152600401611480906121fc565b60405180910390fd5b6000611493611428565b905060008151116114b357604051806020016040528060008152506114de565b806114bd84611682565b6040516020016114ce929190611f94565b6040516020818303038152906040525b915050919050565b505050565b600061150c8473ffffffffffffffffffffffffffffffffffffffff1661182f565b15611675578373ffffffffffffffffffffffffffffffffffffffff1663150b7a02611535610d6b565b8786866040518563ffffffff1660e01b81526004016115579493929190611fd3565b602060405180830381600087803b15801561157157600080fd5b505af19250505080156115a257506040513d601f19601f8201168201806040525081019061159f9190611c42565b60015b611625573d80600081146115d2576040519150601f19603f3d011682016040523d82523d6000602084013e6115d7565b606091505b5060008151141561161d576040517f08c379a00000000000000000000000000000000000000000000000000000000081526004016116149061205c565b60405180910390fd5b805181602001fd5b63150b7a0260e01b7bffffffffffffffffffffffffffffffffffffffffffffffffffffffff1916817bffffffffffffffffffffffffffffffffffffffffffffffffffffffff19161491505061167a565b600190505b949350505050565b606060008214156116ca576040518060400160405280600181526020017f3000000000000000000000000000000000000000000000000000000000000000815250905061182a565b600082905060005b600082146116fc5780806116e590612515565b915050600a826116f59190612397565b91506116d2565b60008167ffffffffffffffff81111561173e577f4e487b7100000000000000000000000000000000000000000000000000000000600052604160045260246000fd5b6040519080825280601f01601f1916602001820160405280156117705781602001600182028036833780820191505090505b5090505b600085146118235760018261178991906123c8565b9150600a85611798919061255e565b60306117a49190612341565b60f81b8183815181106117e0577f4e487b7100000000000000000000000000000000000000000000000000000000600052603260045260246000fd5b60200101907effffffffffffffffffffffffffffffffffffffffffffffffffffffffffffff1916908160001a905350600a8561181c9190612397565b9450611774565b8093505050505b919050565b600080823b905060008111915050919050565b82805461184e906124b2565b90600052602060002090601f01602090048101928261187057600085556118b7565b82601f1061188957805160ff19168380011785556118b7565b828001600101855582156118b7579182015b828111156118b657825182559160200191906001019061189b565b5b5090506118c491906118c8565b5090565b5b808211156118e15760008160009055506001016118c9565b5090565b60006118f86118f38461229c565b612277565b90508281526020810184848401111561191057600080fd5b61191b848285612470565b509392505050565b6000611936611931846122cd565b612277565b90508281526020810184848401111561194e57600080fd5b611959848285612470565b509392505050565b60008135905061197081612ada565b92915050565b60008135905061198581612af1565b92915050565b60008135905061199a81612b08565b92915050565b6000815190506119af81612b08565b92915050565b600082601f8301126119c657600080fd5b81356119d68482602086016118e5565b91505092915050565b600082601f8301126119f057600080fd5b8135611a00848260208601611923565b91505092915050565b600081359050611a1881612b1f565b92915050565b600060208284031215611a3057600080fd5b6000611a3e84828501611961565b91505092915050565b60008060408385031215611a5a57600080fd5b6000611a6885828601611961565b9250506020611a7985828601611961565b9150509250929050565b600080600060608486031215611a9857600080fd5b6000611aa686828701611961565b9350506020611ab786828701611961565b9250506040611ac886828701611a09565b9150509250925092565b60008060008060808587031215611ae857600080fd5b6000611af687828801611961565b9450506020611b0787828801611961565b9350506040611b1887828801611a09565b925050606085013567ffffffffffffffff811115611b3557600080fd5b611b41878288016119b5565b91505092959194509250565b60008060408385031215611b6057600080fd5b6000611b6e85828601611961565b9250506020611b7f85828601611976565b9150509250929050565b60008060408385031215611b9c57600080fd5b6000611baa85828601611961565b925050602083013567ffffffffffffffff811115611bc757600080fd5b611bd3858286016119df565b9150509250929050565b60008060408385031215611bf057600080fd5b6000611bfe85828601611961565b9250506020611c0f85828601611a09565b9150509250929050565b600060208284031215611c2b57600080fd5b6000611c398482850161198b565b91505092915050565b600060208284031215611c5457600080fd5b6000611c62848285016119a0565b91505092915050565b600060208284031215611c7d57600080fd5b6000611c8b84828501611a09565b91505092915050565b611c9d816123fc565b82525050565b611cac8161240e565b82525050565b6000611cbd826122fe565b611cc78185612314565b9350611cd781856020860161247f565b611ce08161264b565b840191505092915050565b6000611cf682612309565b611d008185612325565b9350611d1081856020860161247f565b611d198161264b565b840191505092915050565b6000611d2f82612309565b611d398185612336565b9350611d4981856020860161247f565b80840191505092915050565b6000611d62603283612325565b9150611d6d8261265c565b604082019050919050565b6000611d85601c83612325565b9150611d90826126ab565b602082019050919050565b6000611da8602483612325565b9150611db3826126d4565b604082019050919050565b6000611dcb601983612325565b9150611dd682612723565b602082019050919050565b6000611dee602c83612325565b9150611df98261274c565b604082019050919050565b6000611e11603883612325565b9150611e1c8261279b565b604082019050919050565b6000611e34602a83612325565b9150611e3f826127ea565b604082019050919050565b6000611e57602983612325565b9150611e6282612839565b604082019050919050565b6000611e7a602e83612325565b9150611e8582612888565b604082019050919050565b6000611e9d602083612325565b9150611ea8826128d7565b602082019050919050565b6000611ec0603183612325565b9150611ecb82612900565b604082019050919050565b6000611ee3602c83612325565b9150611eee8261294f565b604082019050919050565b6000611f06602983612325565b9150611f118261299e565b604082019050919050565b6000611f29602f83612325565b9150611f34826129ed565b604082019050919050565b6000611f4c602183612325565b9150611f5782612a3c565b604082019050919050565b6000611f6f603183612325565b9150611f7a82612a8b565b604082019050919050565b611f8e81612466565b82525050565b6000611fa08285611d24565b9150611fac8284611d24565b91508190509392505050565b6000602082019050611fcd6000830184611c94565b92915050565b6000608082019050611fe86000830187611c94565b611ff56020830186611c94565b6120026040830185611f85565b81810360608301526120148184611cb2565b905095945050505050565b60006020820190506120346000830184611ca3565b92915050565b600060208201905081810360008301526120548184611ceb565b905092915050565b6000602082019050818103600083015261207581611d55565b9050919050565b6000602082019050818103600083015261209581611d78565b9050919050565b600060208201905081810360008301526120b581611d9b565b9050919050565b600060208201905081810360008301526120d581611dbe565b9050919050565b600060208201905081810360008301526120f581611de1565b9050919050565b6000602082019050818103600083015261211581611e04565b9050919050565b6000602082019050818103600083015261213581611e27565b9050919050565b6000602082019050818103600083015261215581611e4a565b9050919050565b6000602082019050818103600083015261217581611e6d565b9050919050565b6000602082019050818103600083015261219581611e90565b9050919050565b600060208201905081810360008301526121b581611eb3565b9050919050565b600060208201905081810360008301526121d581611ed6565b9050919050565b600060208201905081810360008301526121f581611ef9565b9050919050565b6000602082019050818103600083015261221581611f1c565b9050919050565b6000602082019050818103600083015261223581611f3f565b9050919050565b6000602082019050818103600083015261225581611f62565b9050919050565b60006020820190506122716000830184611f85565b92915050565b6000612281612292565b905061228d82826124e4565b919050565b6000604051905090565b600067ffffffffffffffff8211156122b7576122b661261c565b5b6122c08261264b565b9050602081019050919050565b600067ffffffffffffffff8211156122e8576122e761261c565b5b6122f18261264b565b9050602081019050919050565b600081519050919050565b600081519050919050565b600082825260208201905092915050565b600082825260208201905092915050565b600081905092915050565b600061234c82612466565b915061235783612466565b9250827fffffffffffffffffffffffffffffffffffffffffffffffffffffffffffffffff0382111561238c5761238b61258f565b5b828201905092915050565b60006123a282612466565b91506123ad83612466565b9250826123bd576123bc6125be565b5b828204905092915050565b60006123d382612466565b91506123de83612466565b9250828210156123f1576123f061258f565b5b828203905092915050565b600061240782612446565b9050919050565b60008115159050919050565b60007fffffffff0000000000000000000000000000000000000000000000000000000082169050919050565b600073ffffffffffffffffffffffffffffffffffffffff82169050919050565b6000819050919050565b82818337600083830152505050565b60005b8381101561249d578082015181840152602081019050612482565b838111156124ac576000848401525b50505050565b600060028204905060018216806124ca57607f821691505b602082108114156124de576124dd6125ed565b5b50919050565b6124ed8261264b565b810181811067ffffffffffffffff8211171561250c5761250b61261c565b5b80604052505050565b600061252082612466565b91507fffffffffffffffffffffffffffffffffffffffffffffffffffffffffffffffff8214156125535761255261258f565b5b600182019050919050565b600061256982612466565b915061257483612466565b925082612584576125836125be565b5b828206905092915050565b7f4e487b7100000000000000000000000000000000000000000000000000000000600052601160045260246000fd5b7f4e487b7100000000000000000000000000000000000000000000000000000000600052601260045260246000fd5b7f4e487b7100000000000000000000000000000000000000000000000000000000600052602260045260246000fd5b7f4e487b7100000000000000000000000000000000000000000000000000000000600052604160045260246000fd5b6000601f19601f8301169050919050565b7f4552433732313a207472616e7366657220746f206e6f6e20455243373231526560008201527f63656976657220696d706c656d656e7465720000000000000000000000000000602082015250565b7f4552433732313a20746f6b656e20616c7265616479206d696e74656400000000600082015250565b7f4552433732313a207472616e7366657220746f20746865207a65726f2061646460008201527f7265737300000000000000000000000000000000000000000000000000000000602082015250565b7f4552433732313a20617070726f766520746f2063616c6c657200000000000000600082015250565b7f4552433732313a206f70657261746f7220717565727920666f72206e6f6e657860008201527f697374656e7420746f6b656e0000000000000000000000000000000000000000602082015250565b7f4552433732313a20617070726f76652063616c6c6572206973206e6f74206f7760008201527f6e6572206e6f7220617070726f76656420666f7220616c6c0000000000000000602082015250565b7f4552433732313a2062616c616e636520717565727920666f7220746865207a6560008201527f726f206164647265737300000000000000000000000000000000000000000000602082015250565b7f4552433732313a206f776e657220717565727920666f72206e6f6e657869737460008201527f656e7420746f6b656e0000000000000000000000000000000000000000000000602082015250565b7f45524337323155524953746f726167653a2055524920736574206f66206e6f6e60008201527f6578697374656e7420746f6b656e000000000000000000000000000000000000602082015250565b7f4552433732313a206d696e7420746f20746865207a65726f2061646472657373600082015250565b7f45524337323155524953746f726167653a2055524920717565727920666f722060008201527f6e6f6e6578697374656e7420746f6b656e000000000000000000000000000000602082015250565b7f4552433732313a20617070726f76656420717565727920666f72206e6f6e657860008201527f697374656e7420746f6b656e0000000000000000000000000000000000000000602082015250565b7f4552433732313a207472616e73666572206f6620746f6b656e2074686174206960008201527f73206e6f74206f776e0000000000000000000000000000000000000000000000602082015250565b7f4552433732314d657461646174613a2055524920717565727920666f72206e6f60008201527f6e6578697374656e7420746f6b656e0000000000000000000000000000000000602082015250565b7f4552433732313a20617070726f76616c20746f2063757272656e74206f776e6560008201527f7200000000000000000000000000000000000000000000000000000000000000602082015250565b7f4552433732313a207472616e736665722063616c6c6572206973206e6f74206f60008201527f776e6572206e6f7220617070726f766564000000000000000000000000000000602082015250565b612ae3816123fc565b8114612aee57600080fd5b50565b612afa8161240e565b8114612b0557600080fd5b50565b612b118161241a565b8114612b1c57600080fd5b50565b612b2881612466565b8114612b3357600080fd5b5056fea2646970667358221220660a47d7f250e85b4e84a9bdbfefcbf066f789eb410b6d33033d5e4acd06461464736f6c63430008030033",
  "immutableReferences": {},
  "source": "// SPDX-License-Identifier: MIT\npragma solidity ^0.8.0;\n\nimport \"@openzeppelin/contracts/token/ERC721/extensions/ERC721URIStorage.sol\";\nimport \"@openzeppelin/contracts/utils/Counters.sol\";\n\ncontract NFToken is ERC721URIStorage {\n    using Counters for Counters.Counter;\n\n    Counters.Counter private _tokenIds;\n\n    constructor(string memory name, string memory symbol)\n        ERC721(name, symbol)\n    {}\n\n    function newToken(address receiver, string memory tokenURI)\n        public\n        returns (uint256)\n    {\n        _tokenIds.increment();\n\n        uint256 newTokenId = _tokenIds.current();\n        _mint(receiver, newTokenId);\n        _setTokenURI(newTokenId, tokenURI);\n\n        return newTokenId;\n    }\n}\n",
  "sourcePath": "/home/miker/workspace/policies/dlt-policy-web3-templates/contracts/NFToken.sol",
  "compiler": {
    "name": "solc",
    "version": "0.8.3+commit.8d00100c.Emscripten.clang"
  },
  "schemaVersion": "3.4.5",
  "updatedAt": "2022-06-10T09:22:16.093Z",
  "networkType": "ethereum",
  "devdoc": {
    "kind": "dev",
    "methods": {
      "approve(address,uint256)": {
        "details": "See {IERC721-approve}."
      },
      "balanceOf(address)": {
        "details": "See {IERC721-balanceOf}."
      },
      "getApproved(uint256)": {
        "details": "See {IERC721-getApproved}."
      },
      "isApprovedForAll(address,address)": {
        "details": "See {IERC721-isApprovedForAll}."
      },
      "name()": {
        "details": "See {IERC721Metadata-name}."
      },
      "ownerOf(uint256)": {
        "details": "See {IERC721-ownerOf}."
      },
      "safeTransferFrom(address,address,uint256)": {
        "details": "See {IERC721-safeTransferFrom}."
      },
      "safeTransferFrom(address,address,uint256,bytes)": {
        "details": "See {IERC721-safeTransferFrom}."
      },
      "setApprovalForAll(address,bool)": {
        "details": "See {IERC721-setApprovalForAll}."
      },
      "supportsInterface(bytes4)": {
        "details": "See {IERC165-supportsInterface}."
      },
      "symbol()": {
        "details": "See {IERC721Metadata-symbol}."
      },
      "tokenURI(uint256)": {
        "details": "See {IERC721Metadata-tokenURI}."
      },
      "transferFrom(address,address,uint256)": {
        "details": "See {IERC721-transferFrom}."
      }
    },
    "version": 1
  },
  "userdoc": {
    "kind": "user",
    "methods": {},
    "version": 1
  }
}